:10000000E5C0000004C1000002C1000000C1000002
:10001000FEC00000FCC00000FAC00000F8C00000F4
:10002000F6C00000F4C00000F2C00000F0C0000004
:1000300018C40000ECC00000EAC00000E8C00000E6
:10004000E6C00000E4C00000E2C00000E0C0000024
:10005000DEC00000DCC00000DAC00000D8C0000034
:10006000D6C000000C94DB230C942D24D0C00000DB
:10007000CEC00000CCC00000CAC00000C8C0000054
:10008000C6C00000C4C00000C2C00000C0C0000064
:100090000C9471240C94C324BAC000000C94242A3C
:1000A000B6C00000B4C00000B2C00000B0C0000084
:1000B000AEC00000ACC00000AAC00000A8C0000094
:1000C000A6C00000A4C00000A2C000000C94072538
:1000D0000C9459259CC000000C949D250C94EF2590
:1000E00096C00000941894189418CB18D318E818E8
:1000F00094189418CB18D318462AB62AB62AB62ACA
:10010000B62AB62AB62AB62A462AB62AB62AB62A5F
:10011000B62AB62AB62AB62A482AB62AB62AB62A4D
:10012000B62AB62AB62AB62AB62AB62AB62AB62ACF
:10013000B62AB62AB62AB62A482AB62AB62AB62A2D
:10014000B62AB62AB62AB62AB62AB62AB62AB62AAF
:10015000B62AB62AB62AB62AB22AB62AB62AB62AA3
:10016000B62AB62AB62AB62A7D2AB62AB62AB62AC8
:10017000B62AB62AB62AB62AB62AB62AB62AB62A7F
:10018000B62AB62AB62AB62A712AB62AB62AB62AB4
:10019000B62AB62AB62AB62A952A0E94490C809118
:1001A000FD11823008F097D20E941119F6CFCF933B
:1001B000DF931F92CDB7DEB7CE0101960E941116D4
:1001C00049810E9406180E945D18F6CF11241FBEB7
:1001D000CFEFD1E2DEBFCDBF00E00CBF17E0A0E063
:1001E000B2E0EEE2F3E600E00BBF02C007900D9232
:1001F000A83DB107D9F724E1A8EDB7E001C01D92F1
:10020000A431B207E1F70E94EE1B0C949531F8CEB1
:1002100062E370E080E090E00E94B00F0E94332221
:10022000882361F01F928F938FE692E09F938F93C4
:100230000E94772E0F900F900F900F906CEA76E24D
:1002400080E090E00E94B00FE3CF0F93CF93DF9355
:10025000EC014FEF5FEFBA018091081490910914FF
:10026000CCD5D093FD13C093FC1300E020E030E028
:10027000A90160E070E0809108149091091443D4C2
:10028000DF91CF910F910895E4EEF7E0A8EEB7E08B
:10029000B183A08313821282E8EAF1E1F093E307CD
:1002A000E093E207138212821182108280EC99E0BF
:1002B00013969C938E931297ED93FC939093DF0784
:1002C0008093DE079093E1078093E00780E090E859
:1002D0009093D9078093D8070895CF93DF93EC01CB
:1002E000A4EEB7E001C0DF01ED91FC911197EC178E
:1002F000FD07C8F312968D919C9113979D01280FCD
:10030000391FC217D30749F42A813B81820F931FFB
:1003100013969C938E931297ED018A819B819E0187
:10032000280F391FE217F307C1F42091E20730913B
:10033000E307E217F30771F022813381820F931FE5
:100340009B838A83ED91FC911197808191819983A0
:10035000888305C03983288302C0F983E883CA17DC
:10036000DB0711F0CD93DC93DF91CF910895EF92ED
:10037000FF920F931F93CF93DF938C010E94940DF4
:100380008091E2079091E307892B09F47DDF80914A
:10039000D8079091D90780239123892B09F076C043
:1003A0000115110549F0C80104960817190718F03E
:1003B00000E010E001C08C010115110509F469C0CD
:1003C0008091E0079091E1078017910708F464C0DD
:1003D000C091E407D091E507E4EEF7E002C0FE012A
:1003E000EC018A819B818017910720F48881998193
:1003F0000097A9F78091E2079091E307C817D90702
:1004000009F44DC0E080F18084E0E80EF11C8881A1
:100410009981918380832A813B81201B310B293074
:10042000310548F0CE01800F911FFC0133832283F8
:100430001B830A8352DF2A813B818091E0079091E0
:10044000E107821B930B9093E1078093E0074091B3
:10045000DE075091DF078417950720F49093DF079C
:100460008093DE078091D8079091D907282B392BEC
:100470003B832A83198218828091DC079091DD07E3
:1004800001969093DD078093DC070BC0E12CF12CE3
:1004900008C0E12CF12C05C0E12CF12C02C0E12CAC
:1004A000F12C0E94D40EE114F10411F40E941D19E4
:1004B000C701DF91CF911F910F91FF90EF900895A9
:1004C0000F931F93CF93DF93009791F1EC01249743
:1004D0004A815B812091D8073091D907BA01622304
:1004E0007323672B29F168817981672B09F52095A2
:1004F0003095242335233B832A830E94940D8A81DF
:100500009B812091E0073091E107820F931F909328
:10051000E1078093E007CE01E0DE8091DA07909159
:10052000DB0701969093DB078093DA070E94D40ED5
:10053000DF91CF911F910F910895FC010396928353
:1005400081834FEF5FEFBA014383548365837683E2
:10055000908787839287818710820895FC01138694
:10056000128608950F931F93CF93DF93EB010881B9
:1005700019812A813B810F3F4FEF1407240734076D
:1005800021F4FC01A185B28511C0DC01139601C0E4
:10059000DF011496ED91FC911597408151816281A4
:1005A0007381041715072607370790F71496ED9106
:1005B000FC911597FD83EC83D783C683BF83AE83FD
:1005C0001596DC93CE9314979B878A87FC01208134
:1005D0002F5F2083DF91CF911F910F910895CF93CB
:1005E000DF93FC01A285B385C481D5818681978183
:1005F0009F838E83C681D781848195819D838C83DF
:1006000011968D919C911297E817F90731F4868124
:10061000978112969C938E931197138612868C91D4
:1006200081508C938C91DF91CF910895A89590EC97
:1006300088E10FB6F894A895809360000FBE909360
:1006400060000895FC0160833197708331971082B8
:1006500031971082319720E82083319710823197AB
:100660001082319710827797408331975083869715
:100670000895DCDFA0916B12B0916C12CD91CDBFCB
:10068000DD91DEBFFF91EF91DF91CF91BF91AF91EF
:100690009F918F917F916F915F914F913F912F919A
:1006A0001F910F91FF90EF90DF90CF90BF90AF9090
:1006B0009F908F907F906F905F904F903F902F9082
:1006C0001F900F900CBE0F900BBE0F900FBE0F909F
:1006D000089581E008950F920FB6F8940F920BB62B
:1006E0000F920CB60F921F9211242F923F924F92AD
:1006F0005F926F927F928F929F92AF92BF92CF92B2
:10070000DF92EF92FF920F931F932F933F934F939C
:100710005F936F937F938F939F93AF93BF93CF9389
:10072000DF93EF93FF93A0916B12B0916C120DB613
:100730000D920EB60D920E94CB0FA0916B12B0914C
:100740006C12CD91CDBFDD91DEBFFF91EF91DF91B6
:10075000CF91BF91AF919F918F917F916F915F9159
:100760004F913F912F911F910F91FF90EF90DF904C
:10077000CF90BF90AF909F908F907F906F905F9041
:100780004F903F902F901F900F900CBE0F900BBE7C
:100790000F900FBE0F9008950F920FB6F8940F921E
:1007A0000BB60F920CB60F921F9211242F923F920C
:1007B0004F925F926F927F928F929F92AF92BF9271
:1007C000CF92DF92EF92FF920F931F932F933F935D
:1007D0004F935F936F937F938F939F93AF93BF9349
:1007E000CF93DF93EF93FF93A0916B12B0916C12B4
:1007F0000DB60D920EB60D9213BE0E94A80D81117A
:100800000E94CB0FA0916B12B0916C12CD91CDBF15
:10081000DD91DEBFFF91EF91DF91CF91BF91AF915D
:100820009F918F917F916F915F914F913F912F9108
:100830001F910F91FF90EF90DF90CF90BF90AF90FE
:100840009F908F907F906F905F904F903F902F90F0
:100850001F900F900CBE0F900BBE0F900FBE0F900D
:1008600008959ADF1895DC0153962C915397222313
:1008700041F05A96ED91FC915B9790818AE0891B3B
:10088000089580E008950FB6F8940F92FC01868DCC
:10089000811102C081E001C080E00F900FBE089579
:1008A0000FB6F8940F92FC01268D878D281302C095
:1008B00081E001C080E00F900FBE08950F931F9359
:1008C000CF93DF93EC01042F1E8D48A141110CC082
:1008D00088819981892B09F042C08C819D810E9479
:1008E00063121D821C8242C0011117C050E08A8130
:1008F0009B810E94182E28A18A819B81820F911DC5
:100900009B838A832C813D818217930750F18881D4
:1009100099819B838A8380E029C050E08E819F81EA
:100920000E94182E88A190E09195819591092E81C1
:100930003F81280F391F3F832E8348815981241717
:10094000350730F42C813D81820F931F9F838E8366
:10095000023049F4112349F0115080E007C080E0D3
:1009600005C080E003C080E001C080E01F5F1E8FF3
:10097000DF91CF911F910F910895FC0140A1442375
:10098000A9F050E026813781240F351F3783268355
:10099000848195812817390720F080819181978380
:1009A0008683CB01668177810C94182E08951F935E
:1009B000CF93DF93EC010FB6F8940F921AA10BC0FE
:1009C0008B89882351F0CE0143960E9489108111B2
:1009D0000E94C511115011169CF38FEF8AA30F903E
:1009E0000FBE0FB6F8940F9219A10BC0888588230B
:1009F00051F0CE0108960E94891081110E94C51104
:100A0000115011169CF38FEF89A30F900FBEDF9149
:100A1000CF911F910895CF93DF93EC010FB6F89417
:100A20000F92E881F9818F8D28A190E030E0829FBC
:100A3000A001839F500D929F500D11244E0F5F1FF8
:100A40005D834C831E8EFB83EA830197289FA00160
:100A5000299F500D389F500D1124CF01840F951FF1
:100A60009F838E838FEF89A38AA361110BC0888532
:100A7000882371F0CE0108960E948910882341F0E6
:100A80002ADE06C0CE01089658DDCE01439655DD1C
:100A90000F900FBE81E0DF91CF9108950F931F93C8
:100AA000F801611103C01183008302C051834083A8
:100AB000878F60A361E0CF01AEDF1F910F91089592
:100AC000DF92EF92FF920F931F93CF93DF93F82E55
:100AD000E62ED42E869FC0011124839648DCEC01BB
:100AE000009741F08C012D2DAC014D5D5F4F6E2DB7
:100AF0008F2DD4DFCE01DF91CF911F910F91FF9009
:100B0000EF90DF900895CF92DF92EF92FF920F93D4
:100B10001F93CF93DF93CDB7DEB729970FB6F89425
:100B2000DEBF0FBECDBF7C016B012E833F834887A4
:100B3000598710E00FB6F8940F92F701968D878DC4
:100B4000981710F00230B1F4402FB601C701B6DE9D
:100B5000F7019389992341F0C70143960E948910B8
:100B6000882321F0B8DD02C08111B5DD0F900FBEE2
:100B700081E04CC08E819F81A885B985892B8A2B05
:100B80008B2B21F40F900FBE80E040C0111105C0E7
:100B9000CE0101960E944E1111E00F900FBEC4D7F6
:100BA0000FB6F8940F92F70181A18F3F09F411A2BB
:100BB000F70182A18F3F09F412A20F900FBEBE0170
:100BC0006A5F7F4FCE0101960E945F11811119C0AB
:100BD000C70166DE882381F04E815F816885798553
:100BE000C70108960E943010C701E1DE0E94D40EB2
:100BF0008111A0CF70DD9ECFC701D9DE0E94D40E37
:100C000099CFC701D4DE0E94D40E80E029960FB69A
:100C1000F894DEBF0FBECDBFDF91CF911F910F9132
:100C2000FF90EF90DF90CF9008950F93009769F0B9
:100C3000FC011582148211821082168200E020E0ED
:100C400030E0A90160E070E05EDF0F910895CF937E
:100C5000DF93482F60E081E033DFEC01E6DFCE0177
:100C6000DF91CF910895EF92FF920F931F93CF934F
:100C7000DF938A01FC01568D378D531710F0223017
:100C8000F9F4422F7801EC011AA18E8DCE0116DE07
:100C90001F3F81F48B898823A9F0CE0143960E94DF
:100CA0008910882389F0E114F10481F081E0F701D3
:100CB00080830DC0FF24F394F10EFAA281E007C0F7
:100CC00080E005C081E003C081E001C081E0DF91E8
:100CD000CF911F910F91FF90EF900895CF92DF92E7
:100CE000EF92FF920F931F93CF93DF93CDB7DEB7B1
:100CF00029970FB6F894DEBF0FBECDBF8C016B01F4
:100D00002E833F8348875987E12C0FB6F8940F92C2
:100D1000F801F68CFF2099F0B601C8012EDEFA9496
:100D2000F801F68E8085882331F0C80108960E946C
:100D300089108111D0DC0F900FBE81E04FC08E81F1
:100D40009F81A885B985892B8A2B8B2B21F40F9045
:100D50000FBE80E043C0E11006C0CE0101960E94A4
:100D60004E11EE24E3940F900FBEDED60FB6F8942A
:100D70000F92F80181A18F3F09F411A2F80182A11D
:100D80008F3F09F412A20F900FBEBE016A5F7F4F22
:100D9000CE0101960E945F11811117C0C80173DD59
:100DA000882379F04E815F8168857985C8014396F3
:100DB0000E943010C801FBDDF7D78111A6CF8BDC74
:100DC000A4CFC801F4DDF0D7A0CFC801F0DDECD787
:100DD000C80159DD882309F498CF80E029960FB621
:100DE000F894DEBF0FBECDBFDF91CF911F910F9161
:100DF000FF90EF90DF90CF900895EF92FF920F93C6
:100E00001F93CF93DF93CDB7DEB729970FB6F89432
:100E1000DEBF0FBECDBF8C014E835F8368877987AD
:100E2000E12CF12C0FB6F8940F92F801868D8823EF
:100E3000C9F08150868F80819181892B29F40E948D
:100E40002513F80195838483F8018085882331F088
:100E5000C80108960E94891081113DDC0F900FBED9
:100E600081E06FC08E819F81A885B985892B8A2BEF
:100E70008B2B21F40F900FBE80E063C0F11006C0F1
:100E8000CE0101960E944E11FF24F3940F900FBEE5
:100E90004BD60FB6F8940F92F80181A18F3F09F459
:100EA00011A2F80182A18F3F09F412A20F900FBE88
:100EB000BE016A5F7F4FCE0101960E945F118111D2
:100EC00026C0C801E0DC8823F1F0F801808191811F
:100ED000892B51F40FB6F8940F92848195810E946A
:100EE000DC11E82E0F900FBE4E815F8168857985F9
:100EF000C80143960E943010C80159DD55D78111B1
:100F000091CFE9DB8FCFC80152DD4ED78BCFC8011F
:100F10004EDD4AD7C801B7DC882309F483CFEE2021
:100F200079F00FB6F8940F92C8019DDC682FF80194
:100F3000848195810E94BE120F900FBE80E001C097
:100F400080E029960FB6F894DEBF0FBECDBFDF91CB
:100F5000CF911F910F91FF90EF900895CF93DF9362
:100F6000EC010FB6F8940F9289A18F3F09F419A2F2
:100F70008AA18F3F09F41AA20F900FBE8E8D8111A6
:100F800004C0CE0143960E944710CE0110DDDF91D0
:100F9000CF910895FC014481558122813381240F32
:100FA000351F80819181B901681B790BCB016417D2
:100FB000750710F0841B950B08950F93FC018FE0CB
:100FC000DF011D928A95E9F775876487558344830D
:100FD0003783268306870F910895AF92BF92CF92F1
:100FE000DF92EF92FF920F931F93CF93DF936C01E9
:100FF0005B017A01FC01C281D381048115810C1B44
:101000001D0B4017510708F48A01F6018485958568
:10101000A801B5018C0F9D1F0E94182E0E151F05EB
:1010200058F4A701401B510BB501600F711FF60169
:10103000848595850E94182ECE018E0D9F1DF60188
:10104000248135818217930710F0821B930BF601E0
:1010500093838283C701DF91CF911F910F91FF90FE
:10106000EF90DF90CF90BF90AF900895CF92DF9236
:10107000EF92FF920F931F93CF93DF931F921F92D4
:10108000CDB7DEB77C016B015A8349832115310549
:10109000C1F0FC01868580FD08C04217530708F4A3
:1010A0009A013A83298381E00FC02017310758F055
:1010B00042E050E0BE016F5F7F4FC7018EDF81E0ED
:1010C00003C080E001C080E0882331F049815A816B
:1010D000B601C70182DF02C080E090E00F900F9060
:1010E000DF91CF911F910F91FF90EF90DF90CF9004
:1010F0000895AF92BF92CF92DF92EF92FF920F933B
:101100001F93CF93DF937C015B01E90142175307E3
:1011100008F4EA01209781F1F701008111818481AF
:101120009581801B910B6E018C179D0708F46C0153
:10113000F70164857585600F711FA601C5010E94C6
:10114000182ECC16DD0658F4AE014C195D09F701D6
:1011500064857585C5018C0D9D1D0E94182E0C0F90
:101160001D1FF701848195810817190710F0081BCE
:10117000190BF70111830083CE01DF91CF911F91ED
:101180000F91FF90EF90DF90CF90BF90AF900895B8
:101190006F927F928F929F92AF92BF92CF92DF9287
:1011A000EF92FF920F931F93CF93DF931F921F92A3
:1011B000CDB7DEB76C014B015A017901011511055C
:1011C000B1F0FC0160807180A801BE016F5F7F4FAC
:1011D00090DF89819A81E01AF10AA816B90630F4E5
:1011E000F60171826082A12CB12C01C05C019701D3
:1011F000A501B401C6017DDF0F900F90DF91CF9163
:101200001F910F91FF90EF90DF90CF90BF90AF9024
:101210009F908F907F906F900895CF92DF92EF9282
:10122000FF920F93CF93DF93EC016B01413011F4E8
:1012300001E001C000E0C114D10419F4CC24C3942E
:10124000D12CCE014096C817D90720F421968FD80B
:101250007C0102C0E12CF12CE114F10439F096017B
:10126000AE01B701615F7F4FC701A7DEC701DF9104
:10127000CF910F91FF90EF90DF90CF9008950F9353
:101280000FB6F8940F92FC0120853185232B71F461
:1012900022853385232B61F4268137814481558152
:1012A00064857585068589DE81E003C080E001C024
:1012B00080E00F900FBE0F910895FC0124813581CD
:1012C00080819181820F931F42815381841B950BF2
:1012D00001978217930710F0821B930B08952F92AA
:1012E0003F924F925F926F927F928F929F92AF92B6
:1012F000BF92CF92DF92EF92FF920F931F93CF9303
:10130000DF93CDB7DEB72B970FB6F894DEBF0FBED5
:10131000CDBF4C017B876A871A010E831F83288704
:101320003987FC01848195810197268520FF0CC0B7
:101330002A01F2E04F0E511C8415950558F41E82C7
:101340001F821886198606C08417950710F02A0197
:1013500001C02C018E819F81A885B985892B8A2B9C
:101360008B2B09F436C0CE01019682D70FB6F894C4
:101370000F92C401A2DF3C018415950538F560E0A9
:1013800080E090E00E94F7150E94C911F401938754
:1013900082870F900FBEAE80BF80C884D984E12CB5
:1013A000F12C00E010E0980140E050E0BA0180E04C
:1013B0000E943713F40113861286BE016A5F7F4FC5
:1013C000CE0101967CD7882389F205C00F900FBE0D
:1013D00002C0612C712C6114710419F4C4016DDF19
:1013E0003C0182019301A1016A857B85C4013EDE37
:1013F0006C01892BE9F0C401CDDDF4012681378130
:1014000082179307A8F090D3F40180859185892BEA
:1014100071F080859185E12CF12C00E020E030E036
:10142000A90160E00E94DE13F40111861086BCD48D
:10143000C6012B960FB6F894DEBF0FBECDBFDF916D
:10144000CF911F910F91FF90EF90DF90CF90BF90C1
:10145000AF909F908F907F906F905F904F903F9054
:101460002F900895AF92BF92CF92DF92EF92FF92AA
:101470000F931F93CF93DF93EC017B015A01690116
:101480008E8580FF04C08A010E5F1F4F01C08A0154
:10149000CE0113DF9C01A501B701CE01E7DD5C01A0
:1014A000892BC1F0CE0176DD2E813F818217930713
:1014B00088F088859985892B69F088859985E12C44
:1014C000F12C00E020E030E0A90160E00E94D5149A
:1014D00019861886C501DF91CF911F910F91FF905A
:1014E000EF90DF90CF90BF90AF9008954F925F92B2
:1014F0006F927F928F929F92AF92BF92CF92DF9224
:10150000EF92FF920F931F93CF93DF93EC012B0188
:101510003A01580169018E8580FF05C068948824CE
:1015200081F8912C02C0812C912CA114B104C1042A
:10153000D10439F10FB6F8940F92CE012BDD7C0166
:101540008816990640F060E080E090E00E94F71570
:1015500020D7998788870F900FBE8E149F04A0F024
:10156000E12CF12C00E010E0980140E050E0BA01DD
:1015700080E00E94371319861886CE010BDD7C01AE
:1015800003C0CE0107DD7C018E149F04E8F48401C2
:101590009701A301B201CE01FBDD6C01892BB1F0F3
:1015A000C3D28A859B85892B69F08A859B85E12C2E
:1015B000F12C00E020E030E0A90160E00E94DE13A1
:1015C0001B861A86F1D302C0C12CD12CC601DF9133
:1015D000CF911F910F91FF90EF90DF90CF90BF9030
:1015E000AF909F908F907F906F905F904F900895F5
:1015F000E091E511F091E611808181110CC08FEF2F
:101600009FEFDC018093AF119093B011A093B111C3
:10161000B093B2110895E091E511F091E6110780C1
:10162000F085E02D80819181A281B3818093AF11FB
:101630009093B011A093B111B093B2110895CF93CC
:10164000DF93EC018B8D9C8D0E946002CE010E9485
:101650006002DF91CF9108954F925F926F927F92D7
:101660008F929F92AF92BF92CF92DF92EF92FF92B2
:101670000F93CF93DF932C015B014A013901E601FF
:1016800065EA70E08B8D9C8D0E94212E8B8D9C8D48
:1016900021E0821A9108880E991EA114B10489F4E0
:1016A00015C0822F90E0F501E80FF91F3081DE01AF
:1016B000A80FB91F5D963C938081882329F02F5F86
:1016C00001C020E0203168F31CA601C01D8E0A3045
:1016D00008F009E00A8F0DA71EA6CE0102960E940F
:1016E000AE02CE010E960E94AE02DB87CA878AE068
:1016F00090E0A0E0B0E0801B9109A109B1098E87BC
:101700009F87A88BB98BDF8BCE8B84E0FE01BF96C1
:10171000DF011D928A95E9F71BAAA301B201C4015A
:101720000E94220399838883E114F10419F0F701E0
:10173000D183C083DF91CF910F91FF90EF90DF9025
:10174000CF90BF90AF909F908F907F906F905F9061
:101750004F900895CF93C0E009C02BE0C29FC00115
:10176000112483509E4E0E949D02CF5FCA30A8F381
:1017700082EF91E10E949D0287EE91E10E949D021D
:1017800088ED91E10E949D028DEC91E10E949D0205
:1017900081EC91E10E949D0282EF91E19093E6112C
:1017A0008093E51187EE91E19093E4118093E3112A
:1017B000CF910895CF93DF93EC010FB6F8940F9279
:1017C0008091C0118F5F8093C01180916B129091B6
:1017D0006C12892B51F4D0936C12C0936B128091D0
:1017E000C011813091F4B6DF10C08091BA1181111F
:1017F0000CC0E0916B12F0916C12928D8A8D89175A
:1018000020F0D0936C12C0936B128091B3118F5F54
:101810008093B311EA8D8091BB118E1710F4E09381
:10182000BB118BE08E9FF0011124E350FE4E01802E
:10183000F281E02DFF83EE83268137813987288767
:10184000A681B7819E012E5F3F4F15963C932E9344
:10185000149737832683EA8D8E9FF0011124E3507D
:10186000FE4EFD87EC8780818F5F80830F900FBED7
:101870008091BA11882351F0E0916B12F0916C12B3
:10188000928D8A8D981710F40E946B03DF91CF918F
:101890000895CF93DF931BC00FB6F8940F92E09199
:1018A000D411F091D511C085D185CE0102960E9448
:1018B000EF028091C01181508093C0118091CC11B2
:1018C00081508093CC110F900FBECE01B8DE809175
:1018D000CC118111E1CFDF91CF9108958F929F922A
:1018E000AF92BF92CF92DF92EF92FF92CF93DF93AE
:1018F0006B017C01C42F8090BC119090BD11A09011
:10190000BE11B090BF1180916B1290916C12029633
:101910000E94EF028FEFC816D806E806F806B1F568
:10192000CC23A1F1E1ECF1E1A181B281C0916B1274
:10193000D0916C12BF83AE83C0916B12D0916C12A8
:1019400016968D919C911797998788871696CD91B9
:10195000DC91179780916B1290916C1202969D8387
:101960008C8380916B1290916C12029617969C93C7
:101970008E931697A0916B12B0916C121D96FC93EA
:10198000EE931C9780818F5F80833FC0C80CD91C69
:10199000EA1CFB1CE0916B12F0916C12C282D382A4
:1019A000E482F582C814D904EA04FB0468F4609167
:1019B0006B1270916C128091E3119091E4116E5F43
:1019C0007F4F0E94B20221C060916B1270916C1225
:1019D0008091E5119091E6116E5F7F4F0E94B202F7
:1019E0008091AF119091B011A091B111B091B2114D
:1019F000C816D906EA06FB0640F4C092AF11D09291
:101A0000B011E092B111F092B211DF91CF91FF903D
:101A1000EF90DF90CF90BF90AF909F908F90089500
:101A20002F923F924F925F926F927F928F929F92EE
:101A3000AF92BF92CF92DF92EF92FF920F93CF932C
:101A4000DF933C011B014A012901CA010E94B70131
:101A50006C01892B71F084E390E00E94B701EC01E6
:101A6000892B19F0DC8ECB8E06C0C6010E94600265
:101A700002C0C0E0D0E0209761F0A12CB12C6E0133
:101A80009201A401B101C301E7DDCE0193DE81E043
:101A900001C08FEFDF91CF910F91FF90EF90DF901A
:101AA000CF90BF90AF909F908F907F906F905F90FE
:101AB0004F903F902F900895EF92FF920F930F2E2B
:101AC000FDEAEF2EF1E1FF2EF02D00E020E030E006
:101AD00040EC50E067E872E08DEC90E0A1DF8130EF
:101AE00011F40E949B168130C9F4F8948FEF9FEF98
:101AF000DC018093AF119093B011A093B111B0931A
:101B0000B21181E08093BA111092BC111092BD11F4
:101B10001092BE111092BF110E94390380910602EB
:101B20000F91FF90EF9008958091AC118F5F80939B
:101B3000AC1108950FB6F8940F926091BC1170919A
:101B4000BD118091BE119091BF110F900FBE0895ED
:101B5000CF92DF92EF92FF92CF93DF938091AC11FF
:101B6000811105C1C090BC11D090BD11E090BE1193
:101B7000F090BF118FEFC81AD80AE80AF80AC0928D
:101B8000BC11D092BD11E092BE11F092BF11C114F0
:101B9000D104E104F104B1F48091E5119091E611D2
:101BA0002091E3113091E4113093E6112093E51177
:101BB0009093E4118093E3118091B4118F5F80932F
:101BC000B41116DD8091AF119091B011A091B111B7
:101BD000B091B211C816D906EA06FB0620F480E0DF
:101BE000B2C081E001C080E0E091E511F091E61122
:101BF000908191110CC04FEF5FEFBA014093AF118C
:101C00005093B0116093B1117093B2119CC0E091E8
:101C1000E511F091E6110780F085E02D0084F18553
:101C2000E02D4281538164817581C416D506E60694
:101C3000F70648F44093AF115093B0116093B1117F
:101C40007093B21180C0A485B585C681D7812085E7
:101C500031853F832E83C085D185268137813D83A1
:101C60002C8311964D915C9112979F012E5F3F4FEF
:101C70004217530731F44085518512965C934E9379
:101C80001197158614869C9191509C93A08DB18DCF
:101C9000109709F1C289D389448955895F834E839E
:101CA000C489D589428953895D834C8311966D918E
:101CB0007C911297AF01425F5F4F6417750731F453
:101CC0004489558912965C934E931197118E108E0C
:101CD0009C9191509C93A28D9091BB119A1710F4F6
:101CE000A093BB119BE09A9FD0011124A350BE4E3C
:101CF00011960D90BC91A02DB783A68316964D9199
:101D00005C911797518740871696CD91DC91179774
:101D10003D832C8317963C932E931697A28D9A9F02
:101D2000D0011124A350BE4EB587A4879C919F5F1C
:101D30009C93228DE0916B12F0916C12928D291779
:101D400008F04FCF51CFE0916B12F0916C12E28D01
:101D50009BE0E99FF0011124E350FE4E9081923008
:101D600008F081E09091B511911116C016C08091D4
:101D7000B6119091B711A091B811B091B911019617
:101D8000A11DB11D8093B6119093B711A093B81106
:101D9000B093B91180E001C081E0DF91CF91FF9055
:101DA000EF90DF90CF900895CF92DF92EF92FF9265
:101DB000CF93DF930FB6F8940F928091AC118150BE
:101DC0008093AC118091AC118111BEC08091C01183
:101DD000811188C0BCC0E091DF11F091E011008456
:101DE000F185E02DA08DB18DC289D3898489958933
:101DF0009F838E83C489D589828993899D838C83AF
:101E000011962D913C911297CF010E962817390704
:101E100031F48489958912969C938E931197118E33
:101E2000108E8C9181508C93A485B585C681D78105
:101E3000808591859F838E83C085D185868197819A
:101E40009D838C8311968D919C9112979F012E5F9B
:101E50003F4F8217930731F48085918512969C93AA
:101E60008E931197158614868C9181508C93A28D38
:101E70008091BB118A1710F4A093BB118BE08A9F4D
:101E8000D0011124A350BE4E11960D90BC91A02DEF
:101E9000B783A68316964D915C911797518740871B
:101EA0001696CD91DC9117973D832C8317963C9322
:101EB0002E931697A28D8A9FD0011124A350BE4E57
:101EC000B587A4878C918F5F8C93928DA0916B12B4
:101ED000B0916C125A968C91981730F081E08093F3
:101EE000B51102C0E0E0F0E08091D811811173CF0C
:101EF000EF2B09F07DDBC090B611D090B711E090C8
:101F0000B811F090B911C114D104E104F104A1F0A9
:101F10001FDE882319F081E08093B51181E0C81A93
:101F2000D108E108F108A1F71092B6111092B7118B
:101F30001092B8111092B9118091B511882331F027
:101F40000E946B0381E003C080E001C080E00F903D
:101F50000FBEDF91CF91FF90EF90DF90CF9008956B
:101F6000CF92DF92EF92FF926B017C01672B682B7F
:101F7000692B39F0D9DD40E0C701B601AFDC14DFD1
:101F800001C080E0811102C00E946B03FF90EF90BE
:101F9000DF90CF9008958091AC11882321F081E0EB
:101FA0008093B51108951092B511E0916B12F091E4
:101FB0006C1220813181E0916B12F0916C12838D53
:101FC000948D8217930760F060916B1270916C1280
:101FD000635E7F4F80916B1290916C120E94291961
:101FE0008091BB1101C08150282F30E09BE0929F6F
:101FF000F001939FF00D1124E350FE4E9081992340
:1020000091F39BE0929FA001939F500D1124DF015B
:102010000180F281E02D0480F581E02D1296FC9381
:10202000EE93119740505E4EE417F50729F4448172
:102030005581FD01528341839BE0929FF001939F64
:10204000F00D1124E350FE4E0180F281E02D208539
:10205000318530936C1220936B128093BB110895DD
:10206000CF92DF92EF92FF926A017B0160916B1237
:1020700070916C12625F7F4F0E94B20241E0C70113
:10208000B6012CDCFF90EF90DF90CF900895CF93B6
:10209000DF93FC01CB01BA01A181B281C0916B1227
:1020A000D0916C12BB8BAA8BC0916B12D0916C1229
:1020B00016964D915C9117975D8B4C8B1696CD9132
:1020C000DC91179740916B1250916C12425F5F4FF9
:1020D0005D834C8340916B1250916C12425F5F4F55
:1020E00017965C934E931697A0916B12B0916C1259
:1020F0005996FC93EE93589730813F5F30832223AB
:1021000019F06FEF7FEFCB01422FE8DBDF91CF912A
:102110000895CF93DF93DC011796ED91FC9118970A
:102120000084F185E02DA08DB18DC289D389848989
:1021300095899F838E83C489D589828993899D835C
:102140008C8311968D919C9112979F01225F3F4F36
:102150008217930731F48489958912969C938E9304
:102160001197118E108E8C9181508C938091AC11AF
:10217000811152C0A485B585C681D781808591859E
:102180009F838E83C085D185868197819D838C8333
:1021900011968D919C9112979F012E5F3F4F821750
:1021A000930731F48085918512969C938E931197B5
:1021B000158614868C9181508C93A28D8091BB11D1
:1021C0008A1710F4A093BB118BE08A9FD0011124D1
:1021D000A350BE4E11960D90BC91A02DB783A6833F
:1021E00016964D915C911797518740871696CD9121
:1021F000DC9117973D832C8317963C932E9316976B
:10220000A28D8A9FD0011124A350BE4EB587A4870A
:102210008C918F5F8C931CC048ED51E1DA011196CF
:10222000CD91DC911297D38BC28B8E819F81958B40
:10223000848B8E819F81DC0115963C932E9314979D
:102240003F832E83518F408FDA018C918F5F8C9367
:10225000928DE0916B12F0916C12828D891720F4AF
:1022600081E08093B51101C080E0DF91CF910895A6
:102270000FB6F8940F922091B411FC012083409185
:10228000BC115091BD116091BE117091BF1141837D
:102290005283638374830F900FBE08952091B4110D
:1022A000FC0120834091BC115091BD116091BE1181
:1022B0007091BF11418352836383748308958F9219
:1022C0009F92AF92BF92CF92DF92EF92FF920F93C5
:1022D0001F93CF93DF93FB010FB6F8940F92C0903A
:1022E000BC11D090BD11E090BE11F090BF11DC0187
:1022F00011960D911D912D913C9114974601570116
:10230000801A910AA20AB30A4081518162817381C5
:102310004F3FBFEF5B076B077B0739F1EC01B881DB
:10232000A091B411BA1759F0C016D106E206F3060F
:1023300030F0108211821282138281E017C084165D
:102340009506A606B70658F4481959096A097B0983
:102350004083518362837383A1DF80E007C01082D2
:1023600011821282138281E001C080E00F900FBEC3
:10237000DF91CF911F910F91FF90EF90DF90CF9061
:10238000BF90AF909F908F90089581E08093B5119A
:10239000089580916B1290916C1208958091BA11FA
:1023A000882331F08091AC11811104C082E008953E
:1023B00081E0089580E008950F931F93CF93DF93FA
:1023C000FC01892B09F477C0828DA0916B12B0912A
:1023D0006C125A969C91891708F063C04685578500
:1023E00060897189772394F0A0916B12B0916C127F
:1023F0005A969C914AE050E060E070E0491B510918
:102400006109710946875787608B718B24853585F3
:102410004BE0849FC001112483509E4E281739073A
:10242000B9F5EF018F010E5F1F4FC8010E94EF0247
:10243000E0916B12F0916C12E28DEA8F8091BB11EA
:102440008E1710F4E093BB118BE08E9FF0011124E6
:10245000E350FE4E0180F281E02DFF83EE83268162
:10246000378139872887A681B78115961C930E93EB
:10247000149717830683EA8D8E9FF0011124E35091
:10248000FE4EFD87EC8780818F5F808381E016C0E0
:10249000A0916B12B0916C125A968C91828F81E050
:1024A0000DC095A5E0916B12F0916C12828D98177A
:1024B00020F080E003C080E001C081E0DF91CF9197
:1024C0001F910F9108950F931F93CF93DF93FC01FA
:1024D000892B09F449C086A5815086A7228D95A530
:1024E000291709F443C0811143C0EF018F010E5F2A
:1024F0001F4FC8010E94EF02EDA5EA8F8AE090E02D
:10250000A0E0B0E08E1B9109A109B1098E879F87D9
:10251000A88BB98B8091BB118E1710F4E093BB117F
:102520008BE08E9FF0011124E350FE4E0180F2817A
:10253000E02DFF83EE832681378139872887A681A6
:10254000B78115961C930E93149717830683EA8D13
:102550008E9FF0011124E350FE4EFD87EC878081B1
:102560008F5F808381E005C080E003C080E001C010
:1025700080E0DF91CF911F910F9108950F931F93EA
:10258000CF93DF93FC01892B09F45AC085A58617E8
:1025900008F4862F928D891709F452C026A52130A0
:1025A00009F04EC0828F46855785608971897723EF
:1025B00064F04AE050E060E070E0481B51096109B6
:1025C000710946875787608B718B248535854BE071
:1025D000949FC001112483509E4E2817390781F51E
:1025E000EF018F010E5F1F4FC8010E94EF02EA8DBD
:1025F0008091BB118E1710F4E093BB118BE08E9F7E
:10260000F0011124E350FE4E0180F281E02DFF83A2
:10261000EE832681378139872887A681B781159671
:102620001C930E93149717830683EA8D8E9FF001F7
:102630001124E350FE4EFD87EC8780818F5F8083FD
:10264000DF91CF911F910F91089580916B1290911E
:102650006C12892B39F0E0916B12F0916C1286A507
:102660008F5F86A780916B1290916C1208954F92A4
:102670005F926F927F92AF92BF92CF92DF92EF9272
:10268000FF920F931F93CF93DF93280139010FB669
:10269000F8940F92E0916B12F0916C12C82FD0E079
:1026A000EC0FFD1F83A9823071F1E0916B12F09164
:1026B0006C12CE01880F991F880F991FE80FF91F20
:1026C00087A590A9A1A9B2A940955095609570954C
:1026D000482359236A237B2347A750AB61AB72ABD6
:1026E000E0916B12F0916C12EC0FFD1F81E083AB57
:1026F000A114B104C104D10431F041E0C601B50117
:10270000EDD80E946B030F900FBE0FB6F8940F9296
:10271000E114F104A1F0E0916B12F0916C12CE0182
:10272000880F991F880F991FE80FF91F87A590A997
:10273000A1A9B2A9F70180839183A283B383E09119
:102740006B12F0916C12EC0FFD1F83A98230E9F43B
:10275000E0916B12F0916C12CE01880F991F880FD7
:10276000991FE80FF91F87A590A9A1A9B2A94094C4
:10277000509460947094482259226A227B2247A682
:1027800050AA61AA72AA81E001C080E020916B1278
:1027900030916C12C20FD31F1BAA0F900FBEDF9196
:1027A000CF911F910F91FF90EF90DF90CF90BF904E
:1027B000AF907F906F905F904F9008958F929F920F
:1027C000AF92BF92EF92FF920F93CF93DF93DC0112
:1027D0000FB6F8940F92E114F10489F0E62FF0E0BF
:1027E000EE0FFF1FEE0FFF1FE80FF91F87A490A841
:1027F000A1A8B2A8F70180829182A282B38270E080
:10280000FD01E60FF71F83A992E093AB023001F1BF
:1028100018F4013031F04DC0033079F10430D1F1BA
:1028200048C0660F771F660F771FFD01E60FF71F81
:1028300087A490A8A1A8B2A8BA01A901482959293A
:102840006A297B2947A750AB61AB72AB01E034C06A
:10285000660F771F660F771FFD01E60FF71F47A56D
:1028600050A961A972A94F5F5F4F6F4F7F4F47A774
:1028700050AB61AB72AB01E01FC0660F771F660FF4
:10288000771FFD01E60FF71F27A730AB41AB52AB17
:1028900001E012C0823079F0660F771F660F771F54
:1028A000FD01E60FF71F27A730AB41AB52AB01E0AC
:1028B00003C001E001C000E0813009F069C01C964E
:1028C000ED91FC911D971696CD91DC911797189676
:1028D0008D919C9119979F838E831896CD91DC9151
:1028E000199716968D919C9117979D838C83818162
:1028F00092819D012E5F3F4F8217930731F4189606
:102900008D919C911997928381831D961C921E92A2
:102910001C978081815080835A96EC915A978091C0
:10292000BB118E1710F4E093BB118BE08E9FF0016A
:102930001124E350FE4E0180F281E02D1796FC93A6
:10294000EE9316974681578119965C934E9318978C
:10295000C681D7813D832C83378326835A96EC9199
:102960005A978E9FF0011124E350FE4E1D96FC9362
:10297000EE931C9780818F5F80835A969C91E091A3
:102980006B12F0916C12828D891710F40E946B0308
:102990000F900FBE802FDF91CF910F91FF90EF909E
:1029A000BF90AF909F908F9008958F929F92AF921B
:1029B000BF92CF92DF92EF92FF920F93CF93DF936C
:1029C000DC01E114F10489F0E62FF0E0EE0FFF1FC7
:1029D000EE0FFF1FE80FF91F87A490A8A1A8B2A8C7
:1029E000F70180829182A282B38270E0FD01E60F3E
:1029F000F71F93A982E083AB023001F118F4013094
:102A000031F04DC0033079F10430D1F148C0660F88
:102A1000771F660F771FFD01E60FF71F87A490A8A9
:102A2000A1A8B2A8BA01A901482959296A297B2974
:102A300047A750AB61AB72AB81E034C0660F771F24
:102A4000660F771FFD01E60FF71F47A550A961A983
:102A500072A94F5F5F4F6F4F7F4F47A750AB61AB7E
:102A600072AB81E01FC0660F771F660F771FFD01F5
:102A7000E60FF71F27A730AB41AB52AB81E012C086
:102A8000923079F0660F771F660F771FFD01E60F12
:102A9000F71F27A730AB41AB52AB81E003C081E009
:102AA00001C080E0913009F096C09091AC11911175
:102AB0005FC01C96ED91FC911D971696CD91DC910F
:102AC000179718962D913C9119973F832E8318964E
:102AD000CD91DC91199716962D913C9117973D83D6
:102AE0002C83418152819D012E5F3F4F4217530736
:102AF00031F418964D915C911997528341831D963C
:102B00001C921E921C979081915090835A96EC9142
:102B10005A979091BB119E1710F4E093BB119BE064
:102B20009E9FF0011124E350FE4E0180F281E02DC2
:102B30001796FC93EE9316974681578119965C93EE
:102B40004E931897C681D7813D832C833783268384
:102B50005A96EC915A979E9FF0011124E350FE4E35
:102B60001D96FC93EE931C9790819F5F908321C0EC
:102B700068ED71E1FB01C181D2815396DC93CE9364
:102B800052972E813F8155963C932E9354974E81B8
:102B90005F819D01225F3F4FFA01358324833F838C
:102BA0002E8359967C936E935897FB0190819F5F7B
:102BB00090835A962C91E0916B12F0916C12928D49
:102BC000921748F4C114D10419F091E0F6019083F2
:102BD00091E09093B511DF91CF910F91FF90EF901D
:102BE000DF90CF90BF90AF909F908F900895009707
:102BF00021F480916B1290916C120FB6F8940F92A1
:102C000070E0FC01E60FF71F23A9223031F4FC012C
:102C1000E60FF71F13AA81E001C080E00F900FBEFE
:102C20000895DC01E0917712F0917812808191E0B3
:102C3000811190E09C93911108C00780F085E02DF0
:102C40006081718182819381089560E070E0CB01A1
:102C50000895CF92DF92EF92FF920F931F93FC01A2
:102C60004283538364837583938782870417150790
:102C700026073707C0F00C191D092E093F09868564
:102C80009785A089B189081719072A073B0700F51E
:102C9000BF016E5F7F4F80917512909176120E94F6
:102CA000B20280E018C00C151D052E053F0528F462
:102CB0004C155D056E057F0568F4BF016E5F7F4FA3
:102CC00080917712909178120E94B20280E003C046
:102CD00081E001C081E01F910F91FF90EF90DF90A4
:102CE000CF9008950FB6F8940F928091731290913F
:102CF0007412892BE9F484E892E10E949D0289E72D
:102D000092E10E949D0284E892E190937812809370
:102D1000771289E792E1909376128093751240E0E2
:102D200067E08AE00E9460059093741280937312AA
:102D30000F900FBE0895EF92FF920F93D3DF809113
:102D4000731290917412892B91F00F2EF1E7EF2EF0
:102D5000F2E1FF2EF02D03E020E030E040EC50E007
:102D60006CE872E087ED90E00E94100D01C080E0F9
:102D70000F91FF90EF9008958F929F92AF92BF9224
:102D8000CF92DF92EF92FF920F931F93CF93DF9337
:102D9000CDB7DEB727970FB6F894DEBF0FBECDBF15
:102DA000E0917312F0917412309781F169832A8354
:102DB0003B834C835D839F838E836630F4F4EEDA2D
:102DC000823069F400E0A7019601BE016F5F7F4F7A
:102DD00080917312909174120E94830518C000E0D4
:102DE00020E030E0A901BE016F5F7F4F8091731238
:102DF000909174120E9483050AC020E0A801BE01D0
:102E00006F5F7F4FCF010E94330601C080E027969D
:102E10000FB6F894DEBF0FBECDBFDF91CF911F91EB
:102E20000F91FF90EF90DF90CF90BF90AF909F9069
:102E30008F9008958F929F92AF92BF92CF92DF9220
:102E4000EF92FF920F931F93CF93DF933BC00780C6
:102E5000F085E02D80809180A280B380C085D185EF
:102E60008E010E5F1F4FC8010E94EF02EC89FD89A1
:102E7000CE0119958E8982FF25C08E859F85A889F0
:102E8000B989880D991DAA1DBB1D88169906AA0629
:102E9000BB0670F48A839B83AC83BD83DB87CA87C0
:102EA000B80180917712909178120E94B2020AC004
:102EB000C12CD12C760100E010E0A501940160E066
:102EC000CE015ADFE0917712F09178128081811162
:102ED000BECF809175129091761290937812809364
:102EE0007712F0937612E0937512DF91CF911F91D4
:102EF0000F91FF90EF90DF90CF90BF90AF909F9099
:102F00008F900895CF92DF92EF92FF92CF93DF934D
:102F1000EC010E949A0D6B017C0180916D129091E1
:102F20006E12A0916F12B0917012C816D906EA06FF
:102F3000FB0620F47FDF81E0888301C01882C09205
:102F40006D12D0926E12E0926F12F0927012C70161
:102F5000B601DF91CF91FF90EF90DF90CF90089571
:102F60004F925F926F927F928F929F92AF92BF9299
:102F7000CF92DF92EF92FF920F931F93CF93DF9345
:102F80004B015C0129013A01E0917712F09178122E
:102F90000780F085E02DC085D185CE0102960E9484
:102FA000EF028E8982FF1BC04E855F856889798913
:102FB000480D591D6A1D7B1D750164019301820135
:102FC000CE0147DE882369F0C12CD12C760100E0C8
:102FD00010E0A501940160E0CE01CEDE02C08E7F3C
:102FE0008E8BEC89FD89CE011995DF91CF911F91D0
:102FF0000F91FF90EF90DF90CF90BF90AF909F9098
:103000008F907F906F905F904F9008958F929F92D6
:10301000AF92BF92CF92DF92EF92FF921F93CF9326
:10302000DF931F92CDB7DEB76B017C01142F0E9496
:10303000940DCE01019666DF4B015C0189818111FF
:103040002DC011110DC08C149D04AE04BF0440F0BE
:103050000E94D40EA5019401C701B60181DF20C0F2
:10306000112341F0E0917512F0917612808111E008
:10307000811110E0B701A601481959096A097B09B5
:10308000212F80917312909174120E94AE070E94BA
:10309000D40E811105C00E946B0302C00E94D40EA1
:1030A0000F90DF91CF911F91FF90EF90DF90CF9025
:1030B000BF90AF909F908F900895AF92BF92CF92A4
:1030C000DF92EF92FF920F931F93CF93DF93CDB7D1
:1030D000DEB728970FB6F894DEBF0FBECDBF82C013
:1030E000898188230CF47EC0AE80BF80D5011C96F8
:1030F0008D919C911D97892B21F0C50102960E940C
:10310000EF02CE010896FEDE8B019C01E9810E2EB6
:10311000000CFF0BEA30F10508F064C08827EE5878
:10312000FF4F8F4F0C94EB2CF50186898160868BC5
:10313000CA80DB80EC80FD80468557856089718977
:103140004C0D5D1D6E1D7F1DC50183DD882309F4B7
:1031500049C0D5015496ED91FC915597C50119953B
:10316000F501868982FF3EC04A815B816C817D8149
:1031700086859785A089B1899A01AB01280F391FEF
:103180004A1F5B1FC12CD12C760100E010E060E0EB
:10319000C501F2DD27C0D50156968C9156978E7FDA
:1031A00056968C931FC0F50186898160868B4A8173
:1031B0005B816C817D8146875787608B718B400F67
:1031C000511F621F731F68017901C50142DD0AC0EA
:1031D000F501868981FD04C0C5010E94600202C01C
:1031E0008E7F868B20E030E0A901BE016F5F7F4FAC
:1031F00080917312909174120E946E06811170CFAB
:1032000028960FB6F894DEBF0FBECDBFDF91CF91E9
:103210001F910F91FF90EF90DF90CF90BF90AF90F4
:103220000895089584B1806884B985B1806885B9AE
:10323000089583B1806883B90895F4DF2FEF80E7A4
:1032400092E0215080409040E1F700C00000F1DFA3
:10325000F5CFE8DF2FEF87EA91E6215080409040DC
:10326000E1F700C00000E5DFF5CF4FEF5FEFBA01F7
:1032700080910814909109140E94FD062091021477
:10328000309103148091FA139091FB1382179307E6
:1032900070F464E680E00E94622262E370E080E005
:1032A00090E00E94B00F6CE980E00E94622200E092
:1032B00020E030E0A90160E070E080910814909176
:1032C00009140E94830568E476E280E090E00E94A1
:1032D000B00FCBCF62E370E080E090E00E94B00FCF
:1032E00067D3282F30E02115310579F023303105DF
:1032F00061F01F928F9384E992E09F938F930E94D5
:10330000772E0F900F900F900F906AE070E080E0A2
:1033100090E00E94B00F61D3282F30E021153105D5
:1033200079F02330310561F01F928F938EEA92E09D
:103330009F938F930E94772E0F900F900F900F9076
:103340006FE070E080E090E00E94B00F4FEF5FEF21
:10335000BA0180910814909109140E94FD0663D36C
:10336000C8EFD3E19B838A8383D39983888300E06A
:1033700020E030E0A90160E070E0809108149091B5
:1033800009140E9483056CEA76E280E090E00E94D6
:10339000B00FA0CF66E470E080E090E00E94B00F34
:1033A0000E945828882361F01F928F9389EC92E045
:1033B0009F938F930E94772E0F900F900F900F90F6
:1033C0006CEA76E280E090E00E94B00FE3CF0F93CA
:1033D000CF93DF9300D01F92CDB7DEB74FEF5FEFF3
:1033E000BA0180910814909109140E94FD06CE0143
:1033F00001960E946A2881110AC069817A818B81B5
:103400009C813CD27093FF136093FE1306C08330FF
:1034100021F48FED92E00E948A2E209106143091C3
:1034200007148091FE139091FF138217930720F4E5
:1034300064E681E00E946222209106143091071414
:103440008091FE139091FF132817390720F46CE93F
:1034500081E00E94622200E020E030E0A90160E00B
:1034600070E080910814909109140E9483050F90D8
:103470000F900F900F90DF91CF910F9108950F93C0
:103480001F93CF93DF93CDB7DEB764970FB6F89451
:10349000DEBF0FBECDBF81E00E94A62761D4DDD67E
:1034A0009F938F938CEE92E09F938F930E94772E41
:1034B000D5D5D3D69F938F938FEF92E09F938F9321
:1034C0000E94772E8E010F5F1F4FC8015BD4C5D6B7
:1034D0001F930F939F938F9388E193E09F938F9314
:1034E0000E94772EC8016AD4B8D69F938F931F93FA
:1034F0000F938CE293E09F938F930E94772EA80105
:1035000061E473E082E693E087D6A7D69F938F931A
:103510001F930F9381E493E09F938F9382E693E050
:103520009F938F9383E793E09F938F930E94772ECF
:1035300078D493D69F938F9389EA93E09F938F9348
:103540000E94772E0FB6F894DEBF0FBECDBF81E08C
:1035500062D583D69F938F9388EB93E09F938F934D
:103560000E94772E84EF91E061D577D69F938F9359
:1035700081E08F9384EF8F9389ED93E09F938F93F6
:103580000E94772E0FB6F894DEBF0FBECDBF1AE0B3
:1035900080E04DD4082F883041F066E371E080E090
:1035A00090E00E94B00F115099F7083019F00E9476
:1035B0006B03FDCF64960FB6F894DEBF0FBECDBF90
:1035C000DF91CF911F910F91089581E0BBD362E00D
:1035D00070E080E090E00E94B00F80E0B3D366E935
:1035E00070E080E090E00E94B00F65D348DFE5EA2C
:1035F000F2E198E0918381E08083EFE8F2E191834A
:10360000808360E177E280E090E00E94B00F4FEFAE
:103610005FEFBA0180910814909109140E94FD0691
:10362000A8EFB3E112968C91129713969C91139781
:10363000E5EAF2E1928383838C9111969C91119734
:103640009483858314968C91149715969C91159765
:103650009683878316968C91169717969C919087E0
:103660008187BF0180E00CD48D3009F443C08E30D7
:1036700009F040C00FEF1FEF980146E150E06FE8FE
:1036800072E18091F6139091F7130E94760A80916F
:103690009012883079F5EFE8F2E1828190E0982F7E
:1036A00088272381820F911DA0E0B4E111969C939D
:1036B0008E93848190E0982F88272581820F911D19
:1036C00013969C938E931297868190E0982F88276B
:1036D0002781820F911D15969C938E931497808558
:1036E00090E0982F88272185820F911D17969C9333
:1036F0008E93169700E020E030E0A90160E070E0D2
:1037000080910814909109140E9483057ACF81B1A9
:10371000816881B980E00E94512685E00E94582787
:1037200041E060E070E08CE290E00E940D0990932F
:10373000F7138093F613BC0181E0C4D2E8EFF3E104
:1037400015821482138212821782168211821082CD
:1037500017D1882369F01F928F9389EF93E09F938D
:103760008F930E94772E0F900F900F900F9004C0B0
:1037700087E194E00E948A2E83E04BD685E291E0B7
:103780006DD683E494E00E948A2E87EE99E10E9430
:103790002828882369F01F928F9388E594E09F93EF
:1037A0008F930E94772E0F900F900F900F9004C070
:1037B00086E794E00E948A2E0E944328882361F0C5
:1037C0001F928F938FE894E09F938F930E94772EA0
:1037D0000F900F900F900F908DC6089598DFE12CF9
:1037E000F12C03E020E030E048E851E061EB74E0C8
:1037F00085EE9AE10E94100D01E020E030E040ECFF
:1038000050E06BEB74E08AE699E10E94100D20E035
:1038100030E040EC50E069EC74E088E091E00E9418
:10382000100D20E030E040EC50E062ED74E08AECF6
:1038300099E10E94100D02E020E030E048E851E0FC
:103840006DED74E085E399E10E94100D81E00E9426
:1038500027069093091480930814009741F000E024
:1038600020E030E0A90160E070E00E94830581EF74
:1038700094E00E948A2E0E945C0DFFCF33D088F026
:103880009F5790F0B92F9927B751A0F0D1F0660F4C
:10389000771F881F991F1AF0BA95C9F712C0B13067
:1038A00081F03AD0B1E0089537C0672F782F88278C
:1038B000B85F39F0B93FCCF3869577956795B395A6
:1038C000D9F73EF490958095709561957F4F8F4F15
:1038D0009F4F089557FD9058440F551F59F05F3F73
:1038E00071F04795880F97FB991F61F09F3F79F022
:1038F00087950895121613061406551FF2CF4695A4
:10390000F1DF08C0161617061806991FF1CF869525
:103910007105610508940895E894BB276627772709
:10392000CB0197F908956530F1F4FA0180818F7326
:1039300090E0982F88272181822B90930A02809310
:1039400009028281F0E48F9FC0011124FA012381D2
:1039500026952695822B909308028093070281E09A
:103960008093BB120895643051F080E090E490930E
:1039700008028093070290930A0280930902089537
:103980000F931F9303E91CE120E034E244EF50E081
:1039900060E087E20E9454299093BD128093BC128C
:1039A00021E0892B09F020E0822F1F910F910895CB
:1039B0008091BC129091BD12009759F040E060E0F8
:1039C00070E00E94A529843031F41092BB1280E08F
:1039D000089582E0089583E008958091BC1290914B
:1039E000BD12009739F064E00E94F129853021F082
:1039F00083E0089582E0089580E0089560910902CF
:103A000070910A0280E090E00E94D62B20E030E026
:103A100048EC52E40E943F2C20E038EF4FE756E498
:103A20000C94642B0895EADF20E030E040E251E49A
:103A30000E943F2C23DFCB01089560910702709113
:103A4000080280E090E00E94D62B20E030E045E2C2
:103A500053E40E943F2C20E038EF4FE756E40E94E9
:103A6000642B20E030E040E252E40C94FD2A0895FB
:103A7000E4DF20E030E040E251E40E943F2C0E946D
:103A8000CF2BCB0108950F931F93CF93DF931F92FA
:103A90001F92CDB7DEB78C0119822DC0E091F512CF
:103AA000EC3250F481E08E0F8093F512F0E0E95D86
:103AB000FC4E8A81808302C01092F5128A818A307E
:103AC000D1F44091F51250E0FA01EB5DFC4E10820A
:103AD000415051099E012F5F3F4F67E273E1809192
:103AE000F8129091F9120E94320A898181110E9484
:103AF0006B031092F512BE016E5F7F4FC8013BD67B
:103B0000882361F20F900F90DF91CF911F910F9159
:103B100008950F931F93CF93DF938C01EB01809156
:103B2000F8129091F9120E943F09B8018EEB92E1D0
:103B30000E94582E209779F0EEEBF2E101900020E0
:103B4000E9F7319780E290E091838083BE018EEBAC
:103B500092E10E944D2EEEEBF2E1DF010D9000208C
:103B6000E9F711978DE09AE011969C938E93129647
:103B70001C9201900020E9F73197EE5BF241AE2FE5
:103B80008EEB92E1AC016A2F8091FA129091FB12B8
:103B90009DD5811111C008E215E020E030E04DE232
:103BA00050E061E873E18091F8129091F9120E945F
:103BB000760A81E893E102C080E090E0DF91CF9146
:103BC0001F910F9108952F923F924F925F926F92A3
:103BD0007F928F929F92AF92BF92CF92DF92EF929D
:103BE000FF920F931F93CF93DF935C01FC01019031
:103BF0000020E9F731976F01C81AD90A5C2C0F2E03
:103C0000FCE98F2EF7E09F2EF02DE12CF12C4C2CAF
:103C10003701F40101811281E80109900020E9F7E0
:103C20002197C01BD10B3C2EF9E0CF16D10458F0E0
:103C3000F4012080FEE02F1206C0B801C5010E94E9
:103C4000282E892B09F5442D351408F44C2F50E00B
:103C5000B801C5010E945F2E892B49F4F301EE0FD4
:103C6000FF1FE60DF71DE456F84F20800DC08FEFC3
:103C7000E81AF80AE3E08E0E911CF1E1EF16F10468
:103C800039F66894222424F8822DDF91CF911F9178
:103C90000F91FF90EF90DF90CF90BF90AF909F90EB
:103CA0008F907F906F905F904F903F902F900895EE
:103CB00030DF89CF08958091F8129091F9120C9419
:103CC0003F0908958F929F92AF92CF92EF920F93F8
:103CD0001F93CF93C82F8B0141E060E070E088EC28
:103CE00090E00E940D099093F9128093F8121093BE
:103CF000F7120093F6120F2EF3E48F2EFDE19F2EA4
:103D0000F02D6894AA24A6F86894CC24C6F8E12C77
:103D100000E023E040E051EE60E070E08C2F06D43C
:103D20009093FB128093FA12E7E0F1E080818061CA
:103D30008083CF911F910F91EF90CF90AF909F9084
:103D40008F900895882331F0E8E0F1E080818F7E44
:103D500080830895E8E0F1E08081806180830895A8
:103D600060E070E082E295E0D4DEE1E8F3E101900A
:103D70000020E9F73197E158F34181E0759708F0A9
:103D800080E00895CF93DF93EC0160E070E083E37F
:103D900095E0BFDEE1E8F3E101900020E9F7E259A8
:103DA000F34139F461E873E1CE010E94582E80E0BE
:103DB00002C0188281E0DF91CF910895FC0101904B
:103DC0000020E9F79F01215131092817390729F40B
:103DD000BC0181E695E06CCF089589E00895FC016F
:103DE00001900020E9F79F01215131092817390777
:103DF00029F4BC0180E795E05BCF089589E0089540
:103E0000FC0101900020E9F79F0121523109281798
:103E1000390729F4BC018FE795E04ACF089589E07E
:103E2000089560E070E08EEB95E042CF08950F9327
:103E30001F93E82FF0E0EE0FFF1FE856F84F608168
:103E4000718187EC95E034DF811114C008E215E040
:103E500020E030E04DE250E061E873E18091F8123B
:103E60009091F9120E94760A882321F081E893E16B
:103E7000AADE03C081E893E1A6DE1F910F910895A9
:103E80000F931F93CF93DF931F92CDB7DEB7DB0164
:103E900011969C911197953108F0B4C0992381F146
:103EA00060E070E0272F30E0462F50E0FD01E40F86
:103EB000F51F928192959F709A3010F0995C01C025
:103EC000905DF901EE5EFC4E90832F5F3F4FFD0148
:103ED000E40FF51F92819F70492F50E04A30510541
:103EE00014F0995C01C0905DF901EE5EFC4E908388
:103EF0007E5F6F5F11969C911197691798F201C0D0
:103F000070E0E72FF0E0EE5EFC4E10824C918111E4
:103F100003C080ED95E002C082ED95E022E133E13F
:103F20003F932F931F924F939F938F9386ED95E02E
:103F30009F938F9384E593E19F938F930E94BA2E72
:103F400060E070E084E593E1B3DE0FB6F894DEBF85
:103F50000FBECDBF811159C008E215E020E030E06E
:103F60004DE250E061E873E18091F8129091F9120E
:103F70000E94760A882309F447C081E893E123DE92
:103F80008E3009F042C087E089838091F6129091CB
:103F9000F712892BA9F1BE016F5F7F4F81E893E192
:103FA00068D18093FC12E981F0E0EF57FC4EDF010D
:103FB0000D900020E9F71197AE1BBF0BAA2391F0DB
:103FC000BB27CD0101979C0112F42F5F3F4F359520
:103FD00027952093FD12AF014F5F5F4F64E18EEF95
:103FE00092E173D101E010E020E030E046E150E0E2
:103FF0006CEF72E18091F6129091F7120E946F09B6
:104000008EE003C084E101C080E00F90DF91CF918A
:104010001F910F910895813019F066EE75E002C08E
:104020006FEB76E08AEE95E043CE08959F938F93F1
:104030008BE196E09F938F9384E593E19F938F9319
:104040000E94BA2E60E070E084E593E131DE0F90CB
:104050000F900F900F900F900F9008952F923F9216
:104060004F925F926F927F928F929F92AF92BF9288
:10407000CF92DF92EF92FF920F931F93CF93DF9334
:10408000CDB7DEB7A0970FB6F894DEBF0FBECDBF99
:1040900068E476E084E596E03CDD95DD8111A3C01F
:1040A00080E2E2E2F2E0DE01119601900D928A9543
:1040B000E1F79E012F5F3F4F6901E12CF12C0F2E9C
:1040C000F0E6AF2EF6E0BF2EF02D04E513E10F2E43
:1040D000F9E74F2EF6E05F2EF02D0F2EF0E98F2E30
:1040E000F6E09F2EF02D0F2EFAEA6F2EF6E07F2ECF
:1040F000F02D3E2C2F2CFF92EF92BF92AF921F9388
:104100000F930E94BA2E60E070E0C80102DD5BDD13
:104110000F900F900F900F900F900F90811163C030
:1041200032E03E15E8F4F60183818F9382818F930C
:1041300081818F9380818F93FF92EF925F924F9254
:104140001F930F930E94BA2E60E070E0C801E1DC7B
:104150003ADD0FB6F894DEBF0FBECDBF811143C06C
:104160002F923F929F928F921F930F930E94BA2E8D
:1041700060E070E0C801CDDC26DD0F900F900F905D
:104180000F900F900F9081112EC02F923F927F922F
:104190006F921F930F930E94BA2E60E070E0C801E7
:1041A000B8DC11DD0F900F900F900F900F900F90D3
:1041B000811119C03FEFE31AF30A84E0C80ED11C45
:1041C00098E0E916F10409F094CF60E070E082EC29
:1041D00096E09FDCF8DC811106C060E070E083EDC2
:1041E00096E097DCF0DCA0960FB6F894DEBF0FBE29
:1041F000CDBFDF91CF911F910F91FF90EF90DF9096
:10420000CF90BF90AF909F908F907F906F905F9076
:104210004F903F902F900895EF92FF920F931F932E
:10422000CF93DF93EC018B017A0181E0F4DE811101
:104230000DC0CE01D4DD811109C0C801E1DD8111BD
:1042400005C0C701BBDD811101C0EBDDDF91CF915E
:104250001F910F91FF90EF90089590E0FC01EE0FF9
:10426000FF1F8E0F9F1FFC01E456F84F8181928142
:104270000895DC01009729F1FB012081FC010190E8
:104280000020E9F73197E81BF90B822F90E0E8173F
:10429000F907C8F080E008C0880F382F330F330FBC
:1042A000830F8053890F2F5FFD01E20FF11D908175
:1042B00030ED390F3A3010F49111EECFFB0120832D
:1042C000089580E0089580E008950F931F93CF93A1
:1042D000DF93DC01EA012097E1F1FA01019000206F
:1042E000E9F73197E41BF50B329710F532C08D01D9
:1042F000040F151F30E0AE01420F531FFA019081E9
:10430000913428F09753592F5295507F03C0592F5D
:104310005295507F2C0F3D1FF9019181913410F07F
:10432000975301C09053950FF80190838F5F01C0A0
:1043300080E0282F220F482F50E0FE01019000203E
:10434000E9F73197EC1BFD0B4E175F0710F486134E
:10435000CECFDF91CF911F910F9108958091B1132E
:10436000860F8093B1139091B413913079F028F0B7
:104370009230A9F0933019F108956F3F09F048C0C9
:104380001092B11381E08093B4130895663809F058
:104390003FC01092B01382E08093B4130895E0916F
:1043A000B01381E08E0F8093B013F0E0E255FC4E25
:1043B0006083823069F583E08093B413089590910F
:1043C000B01321E0290F2093B013963009F5811125
:1043D0000EC0EEEAF3E1808190E0982F88272181DA
:1043E000820F911D9093B6138093B51304C0109261
:1043F000B6131092B5131092B413E091B213F0916A
:10440000B313309729F08091B5139091B613199595
:1044100008958F929F92AF92CF92EF920F930F2EAB
:10442000FEEA8F2EF1E29F2EF02D6894AA24A4F8C4
:104430006894CC24C4F8E12C00E023E040E855E285
:1044400060E070E073D09093B8138093B7130F912E
:10445000EF90CF90AF909F908F9008959093B3136B
:104460008093B2130895CF93DF93CDB7DEB729972A
:104470000FB6F894DEBF0FBECDBF89E0E2E4F2E0F4
:104480009E012F5F3F4FD90101900D928A95E1F770
:104490001092B6131092B5138091B7139091B81380
:1044A000009731F0422F532F69E010D180E001C016
:1044B00082E029960FB6F894DEBF0FBECDBFDF9124
:1044C000CF91089565360CF064E66C390CF46CE914
:1044D00096EF6902B00111246854744F811105C030
:1044E0007093290160932801089570932B016093C4
:1044F0002A010895EAE0F1E08081886180838FE3FA
:104500009CE9909327018093260160E080E0DADF48
:1045100060E081E0D7DFE0E2F1E08081826A8083C1
:10452000E1E2F1E080818A61808308952F923F92D9
:104530004F925F926F927F928F929F92AF92CF92A3
:10454000EF92FF920F931F93CF93DF93CDB7DEB718
:10455000F82E2A013B0188E090E00E94F32C8C01A8
:104560008F2D90E0FC01EE0FFF1FE754FC4E1183EE
:1045700000830115110509F46CC0880F991FFC0117
:10458000E55FFD4F80819181D8018D939C938C2DA7
:1045900090E0880F991F880F991F0E94F32C1C012F
:1045A00086E090E00E94F32C7C014C2DB1010E942A
:1045B000E12AF801F582E4828A2D90E0880F991FA4
:1045C000880F991F0E94F32C1C0186E090E00E9446
:1045D000F32C7C014A2DB101F4D7D8011396FC923B
:1045E000EE92129717969C928E921697FFB6F894B9
:1045F000ED91FC91119736978081826080838D9038
:104600009C90C301B2010E94D62B20E030E040E034
:1046100051E40E943F2C9B01AC0160E074E284E70E
:104620009BE40E94642B20E030E040E85FE3E5D7A4
:1046300025D9F40132976083D801ED91FC9111974F
:10464000359788E98083ED91FC91349786E08083EB
:10465000FFBEC801DF91CF911F910F91FF90EF90A6
:10466000CF90AF909F908F907F906F905F904F9082
:104670003F902F900895CF93DF93DC01892B01F1B8
:104680001296ED91FC911397938182812581981B5D
:10469000922384819817B1F0838126952823C081C5
:1046A000D181C20FD11D68838F5F95818923838358
:1046B000ED91FC91359780818062808380E003C01A
:1046C00081E001C082E0DF91CF910895EF92FF92E7
:1046D0000F931F93CF93DF937C01009709F441C0A0
:1046E000DC011296ED91FC91139793818281981BC6
:1046F000858198238481891B8617A8F1662341F15F
:10470000842F952FDC016150462F50E04F5F5F4FA3
:10471000480F591FE701EA81FB819381828125813E
:10472000981B92238481981779F08C919381269518
:104730002923608171818B01020F111DE80188839B
:104740009F5F8581982393831196A417B50711F76E
:10475000D701ED91FC91359780818062808380E064
:1047600003C081E001C082E0DF91CF911F910F91E2
:10477000FF90EF9008950097D1F0DC011496ED9131
:10478000FC91159793818281981799F09281858188
:1047900086958923A081B181A80FB11D8C91DB0181
:1047A0008C939F5F85819823928380E0089581E0B8
:1047B000089583E008951F920F920FB60F9211246F
:1047C0000BB60F922F933F934F935F936F937F930B
:1047D0008F939F93AF93BF93CF93DF93EF93FF9309
:1047E000A091B913B091BA13109711F16091C6005E
:1047F0001496ED91FC911597938182812581981BE8
:1048000092238481981761F0838126952823C081A3
:10481000D181C20FD11D68838F5F958189238383E6
:104820001696ED91FC911797309711F0CD011995DF
:10483000FF91EF91DF91CF91BF91AF919F918F91B8
:104840007F916F915F914F913F912F910F900BBE90
:104850000F900FBE0F901F9018951F920F920FB6DA
:104860000F9211240BB60F922F938F939F93AF93B8
:10487000BF93EF93FF93E091B913F091BA13309780
:10488000B9F00280F381E02D938182819817B1F015
:1048900092818581282F26952923A081B181A20F9D
:1048A000B11D2C919F5F892382832093C6000BC08A
:1048B000E1ECF0E080818F7D808305C0E1ECF0E0E9
:1048C00080818F7D8083FF91EF91BF91AF919F9108
:1048D0008F912F910F900BBE0F900FBE0F901F90D6
:1048E00018951F920F920FB60F9211240BB60F92CC
:1048F0002F933F934F935F936F937F938F939F93E8
:10490000AF93BF93CF93DF93EF93FF93A091BB132C
:10491000B091BC13109711F16091CE001496ED91F7
:10492000FC911597938182812581981B9223848124
:10493000981761F0838126952823C081D181C20F09
:10494000D11D68838F5F9581892383831696ED91AE
:10495000FC911797309711F0CD011995FF91EF91C8
:10496000DF91CF91BF91AF919F918F917F916F9187
:104970005F914F913F912F910F900BBE0F900FBE03
:104980000F901F9018951F920F920FB60F9211243F
:104990000BB60F922F938F939F93AF93BF93EF9389
:1049A000FF93E091BB13F091BC133097B9F00280F4
:1049B000F381E02D938182819817B1F092818581F6
:1049C000282F26952923A081B181A20FB11D2C91FA
:1049D0009F5F892382832093CE000BC0E9ECF0E037
:1049E00080818F7D808305C0E9ECF0E080818F7D40
:1049F0008083FF91EF91BF91AF919F918F912F9104
:104A00000F900BBE0F900FBE0F901F9018951F9226
:104A10000F920FB60F9211240BB60F922F933F9364
:104A20004F935F936F937F938F939F93AF93BF93B6
:104A3000CF93DF93EF93FF93A091BD13B091BE137B
:104A4000109711F16091D6001496ED91FC91159795
:104A5000938182812581981B92238481981761F02C
:104A6000838126952823C081D181C20FD11D6883FF
:104A70008F5F9581892383831696ED91FC9117971B
:104A8000309711F0CD011995FF91EF91DF91CF9102
:104A9000BF91AF919F918F917F916F915F914F9156
:104AA0003F912F910F900BBE0F900FBE0F901F9054
:104AB00018951F920F920FB60F9211240BB60F92FA
:104AC0002F938F939F93AF93BF93EF93FF93E091B7
:104AD000BD13F091BE133097B9F00280F381E02D41
:104AE000938182819817B1F092818581282F269534
:104AF0002923A081B181A20FB11D2C919F5F892331
:104B000082832093D6000BC0E1EDF0E080818F7DA1
:104B1000808305C0E1EDF0E080818F7D8083FF918F
:104B2000EF91BF91AF919F918F912F910F900BBEFD
:104B30000F900FBE0F901F9018951F920F920FB6F7
:104B40000F9211240BB60F922F933F934F935F93C5
:104B50006F937F938F939F93AF93BF93CF93DF9385
:104B6000EF93FF93A091BF13B091C013109711F171
:104B7000609136011496ED91FC9115979381828195
:104B80002581981B92238481981761F08381269553
:104B90002823C081D181C20FD11D68838F5F958189
:104BA000892383831696ED91FC911797309711F026
:104BB000CD011995FF91EF91DF91CF91BF91AF9109
:104BC0009F918F917F916F915F914F913F912F9125
:104BD0000F900BBE0F900FBE0F901F9018951F9255
:104BE0000F920FB60F9211240BB60F922F938F9343
:104BF0009F93AF93BF93EF93FF93E091BF13F09117
:104C0000C0133097B9F00280F381E02D9381828147
:104C10009817B1F092818581282F26952923A081AC
:104C2000B181A20FB11D2C919F5F892382832093B4
:104C300036010BC0E1E3F1E080818F7D808305C008
:104C4000E1E3F1E080818F7D8083FF91EF91BF915F
:104C5000AF919F918F912F910F900BBE0F900FBE30
:104C60000F901F901895CF93DF931F92CDB7DEB7AB
:104C7000BE016F5F7F4F8091C1139091C2137BDDA6
:104C80008111F6CF898190E00F90DF91CF91089547
:104C9000682F8091C1139091C213EDDC80E090E009
:104CA00008958F929F92AF92CF92EF920F93812CA3
:104CB000912C6894AA24A7F86894CC24C7F8E12C16
:104CC00000E023E040E051EE60E070E02FDC9093E4
:104CD000C2138093C113EEE0F4E183E192E091838B
:104CE0008083938382830F91EF90CF90AF909F90BA
:104CF0008F90089590E0FC01EE0FFF1FE80FF91F61
:104D0000EE0FFF1FED53FC4E238121111FC09C01AC
:104D1000220F331FF901E80FF91FEE0FFF1FED53AC
:104D2000FC4EA081B1814C91F901E80FF91FEE0F03
:104D3000FF1FED53FC4E81E090E0028002C0880F1F
:104D4000991F0A94E2F7842B8C930895FC01EE0FCF
:104D5000FF1FDF01A80FB91FAA0FBB1FAD53BC4E29
:104D60000D90BC91A02D2C91E80FF91FEE0FFF1FA5
:104D7000ED53FC4E81E090E0028002C0880F991F45
:104D80000A94E2F7809582238C93089590E0FC01C9
:104D9000EE0FFF1FE80FF91FEE0FFF1FED53FC4E44
:104DA0002381211120C09C01220F331FF901E80F3C
:104DB000F91FEE0FFF1FED53FC4EA081B1814C9106
:104DC000F901E80FF91FEE0FFF1FED53FC4E81E0D4
:104DD00090E0028002C0880F991F0A94E2F7809544
:104DE00084238C930895FC01EE0FFF1FDF01A80FB1
:104DF000B91FAA0FBB1FAD53BC4E0D90BC91A02D87
:104E00002C91E80FF91FEE0FFF1FED53FC4E81E0D0
:104E100090E0028002C0880F991F0A94E2F7822B6B
:104E20008C930895CC24C394D12C6894BB24B2F8FD
:104E3000C3ECD3E110E08C81813081F018F1823035
:104E400061F5E881F9812081C6010A8002C0880FDE
:104E5000991F0A94E2F7822780831FC08D818F5F9C
:104E60008A3010F48D8319C01D82E881F981208178
:104E7000C6010A8002C0880F991F0A94E2F78227B0
:104E800080830BC00D81002329F0812F7FDF01502B
:104E90000D8303C0BC82812F2DDF1F5F2696143047
:104EA00051F665E070E080E090E00E94B00FC0CF66
:104EB000EF92FF920F931F93CF93DF93082F80E41D
:104EC00087B9C3ECD3E10F2EF8E2EF2EF12CF02DD1
:104ED000F982E88286E08A831B8214E01C8380E0EA
:104EE00009DF80E887B9FF82EE8287E0888719862C
:104EF0001A8781E0FFDE80E283BB84E390E09D8738
:104F00008C8785E08E871F86188B82E0F3DE80E138
:104F10008093010182E091E09B8B8A8B1C8B1D8A20
:104F20001E8B83E0E7DEE12CF12C20E030E040EC4A
:104F300050E06FEC77E082E197E20E94100DDF9184
:104F4000CF911F910F91FF90EF900895CF93DF9332
:104F500090E0FC01EE0FFF1FDF01A80FB91FAA0FA1
:104F6000BB1FAD53BC4ECD91DC911197488121E020
:104F700030E012960C90129702C0220F331F0A9451
:104F8000E2F724272883FD0181E08483DF91CF911C
:104F90000895E091E313F091E413309709F0199527
:104FA00008956450623008F03BC02091E213223033
:104FB00079F018F4213031F030C0233081F0243002
:104FC000A1F02BC022E02093E21361E00AC2089511
:104FD000FA0180818093DF1382E0DBCF089524E023
:104FE0002093E21364E0FDC10895FA01818190E00D
:104FF000982F88272081822B9093DE138093DD13D6
:10500000838190E0982F88272281822B9093DC1354
:105010008093DB1381E0BDCF089580E0BACF08957F
:105020001092E21386E0B5CF08952091E5133091F8
:10503000E6132115310541F0462FBC01C90185D188
:10504000823021F080E0089587E0089585E008959A
:105050000F931F939093E4138093E31301ED17E2F2
:1050600020E034E244EF50E060E089E21DD190930B
:10507000E6138093E513892B11F080E001C088E0EE
:105080001F910F910895CF93DF931F921F92CDB779
:10509000DEB780EA898383E08A831092E21362E0BC
:1050A000CE010196C2DF0F900F90DF91CF9108954E
:1050B000CF93DF931F92CDB7DEB784EB898383E074
:1050C0008093E21361E0CE010196AFDF0F90DF9194
:1050D000CF9108952F923F924F925F926F927F925D
:1050E0008F929F92AF92BF92CF92DF92EF92FF92F8
:1050F0000F931F93CF93DF93C091DB13D091DC13F9
:10510000CF3F2FEFD20741F06091DD137091DE1396
:105110006F3FEFEF7E0759F44FEF5FEF6FE77FE7E9
:10512000FC01408351836283738383E099C01C0137
:1051300080E090E03BD32B013C01BE0180E090E099
:1051400035D34B015C018091E01390E0019624E699
:10515000289FB001299F700D11248091E1138032A6
:1051600069F08033A1F08031E1F40F2EC12CD12CF5
:10517000F8ECEF2EF1E4FF2EF02D1BC00F2EC12C0A
:10518000D12CF6EDEF2EF3E4FF2EF02D12C00F2EF2
:10519000C12CF0E5DF2EFAE1EF2EF6E4FF2EF02D24
:1051A00008C00F2EC12CD12CF0E8EF2EFFE3FF2E0C
:1051B000F02D072E000C880B990BFAD2A70196014F
:1051C0005ED320E030E04CEC53E47ED26B017C01F6
:1051D00025E83BEE41ED5FE3C501B40150D39B01EF
:1051E000AC01C301B20109D2A70196016DD2162FFD
:1051F000D72FC82F092F2DE33AE047E15FE3C30122
:10520000B2013DD32B013C0126EF38E24CE55FE3D0
:10521000C501B40134D39B01AC01C301B201EDD18E
:10522000A701960151D2C62ED72EE82EF92E262F91
:10523000372F482F592F612F7D2F8C2F902F1BD365
:10524000181624F01C2DDD2DCE2D0F2D412F5D2F96
:105250006C2F702FF101408351836283738380E050
:10526000DF91CF911F910F91FF90EF90DF90CF9042
:10527000BF90AF909F908F907F906F905F904F9076
:105280003F902F9008958091F51381110CC08CE010
:105290008093B8008FEF8093BB0084E08093BC00C4
:1052A00081E08093F5130895AF92BF92CF92DF9281
:1052B000EF92FF920F931F93CF93DF93A82EB62EFA
:1052C00069017A0184E090E08ED3EC01892B61F1D1
:1052D000A88281E0B81212C0C701B60120EA36E800
:1052E00041E050E056D3DA01C9014097A109B10964
:1052F000B695A79597958795898311C0C701B60183
:1053000020E83AE146E050E044D3DA01C901409791
:10531000A109B109B695A7959795879589831B83B0
:105320000A838C2F9D2F02C080E090E0DF91CF9107
:105330001F910F91FF90EF90DF90CF90BF90AF90B3
:1053400008958091BC0081700895FF920F931F9380
:10535000CF93DF930097D1F14A30D0F5F42E8B0133
:10536000EC01EFDF811136C08091E8139091E913D1
:10537000C817D90741F087DF89818093B800D0939F
:10538000E913C093E81381E08F0D8093EA138881BD
:10539000880F8093EB13FF2089F0F801ACEEB3E1A6
:1053A0004FEF4F0D642F70E0CB010196B801680FED
:1053B000791F81918D93E617F707D9F788EF8093CE
:1053C000210285EA8093BC0084E005C086E003C02A
:1053D00087E001C082E0DF91CF911F910F91FF9094
:1053E00008951F93CF93DF93009729F16B3028F531
:1053F000162FEC01A6DF811122C08091E813909155
:10540000E913C817D90741F03EDF89818093B800BE
:10541000D093E913C093E8131093EA138881880F9F
:1054200081608093EB1388EF8093210285EA80935B
:10543000BC0085E005C086E003C087E001C082E0D3
:10544000DF91CF911F9108951F920F920FB60F9287
:1054500011240BB60F922F933F934F935F936F934B
:105460007F938F939F93AF93BF93EF93FF93E091BD
:10547000B9008E2F90E0FC013897E135F10508F076
:1054800075C08827E458FF4F8F4FA5C21092E713CD
:10549000E091E7138091EA13E81770F481E08E0F32
:1054A0008093E713F0E0E551FC4E80818093BB00D0
:1054B00085E88093BC0072C084E98093BC00809131
:1054C000E8139091E913DC011296ED91FC9113978A
:1054D000309709F463C020E040E050E064E01995A3
:1054E0005DC0E091E71381E08E0F8093E713809118
:1054F000BB00F0E0E551FC4E80838091B900803420
:1055000011F41092E7132091E71330E08091EA1331
:1055100090E001972817390724F485EC8093BC00AC
:105520003DC085E88093BC0039C08091BB00E0910C
:10553000E713F0E0E551FC4E808384E98093BC00E2
:105540008091E8139091E913DC011296ED91FC91A2
:105550001397309719F12091EA134BEE53E165E070
:1055600019951CC085EA8093BC0018C08091B900D1
:105570008093210284E08093BC008091E813909195
:10558000E913DC011296ED91FC911397309731F0FD
:1055900020E040E050E0609121021995FF91EF91E9
:1055A000BF91AF919F918F917F916F915F914F913B
:1055B0003F912F910F900BBE0F900FBE0F901F9039
:1055C0001895FC01411101C02FD3842F90E09C015C
:1055D0002150310982239323892B09F025D34138A7
:1055E00008F022D3128213824483440F4150458332
:1055F0007183608380E090E008955058BB27AA270C
:105600000ED028C119D130F01ED120F031F49F3FC7
:1056100011F41EF40EC10EF4E095E7FB04C1E92F6E
:105620000E946A1C78F3BA1762077307840795070C
:1056300020F079F4A6F50C948C1C0EF4E0950B2E5A
:10564000BA2FA02D0B01B90190010C01CA01A001D4
:105650001124FF27591B99F0593F50F4503E68F12F
:105660001A16F040A22F232F342F4427585FF3CF70
:10567000469537952795A795F0405395C9F77EF441
:105680001F16BA0B620B730B840BBAF09150A1F08A
:10569000FF0FBB1F661F771F881FC2F70EC0BA0F10
:1056A000621F731F841F48F4879577956795B79598
:1056B000F7959E3F08F0B1CF9395880F08F0992792
:1056C000EE0F9795879508950DD0C4C0BCD048F0D3
:1056D000B3D038F021F45F3F21F0A5C051110C94F4
:1056E0008D1CA7C00E946A1C88F39923B9F3552327
:1056F000A1F3951B550BBB27AA27621773078407D5
:1057000038F09F5F5F4F220F331F441FAA1FA9F37A
:1057100034D00E2E3AF0E0E831D091505040E6956A
:10572000001CCAF72AD0FE2F28D0660F771F881FCB
:10573000BB1F261737074807AB07B0E809F0BB0BBC
:10574000802DBF01FF2793585F4F32F09E3F5105D8
:1057500070F069C00C948D1C5F3FE4F3983ED4F365
:10576000869577956795B795F7959F5FC9F7880FE9
:10577000911D9695879597F90895E1E0660F771F3B
:10578000881FBB1F621773078407BA0720F0621BCC
:10579000730B840BBA0BEE1F88F7E09508950E94F7
:1057A0003E1C6894B1110C948D1C0895E89409C0B6
:1057B00097FB3EF490958095709561957F4F8F4F44
:1057C0009F4F9923A9F0F92F96E9BB279395F6955A
:1057D000879577956795B795F111F8CFFAF4BB0FD8
:1057E00011F460FF1BC06F5F7F4F8F4F9F4F16C03C
:1057F000882311F096E911C0772321F09EE8872FC6
:10580000762F05C0662371F096E8862F70E060E081
:105810002AF09A95660F771F881FDAF7880F9695FA
:10582000879597F9089597F99F6780E870E060E0A1
:1058300008959FEF80EC089500240A941616170629
:1058400018060906089500240A9412161306140671
:1058500005060895092E0394000C11F4882352F0D4
:10586000BB0F40F4BF2B11F460FF04C06F5F7F4F8C
:105870008F4F9F4F089569D008F48FEF08950CD093
:10588000E9CFDADF28F0DFDF18F0952309F0CBCF7E
:10589000D0CF11240C948D1C0E946A1C90F3959F0C
:1058A000C1F3950F50E0551F629FF001729FBB2717
:1058B000F00DB11D639FAA27F00DB11DAA1F649FB3
:1058C0006627B00DA11D661F829F2227B00DA11D66
:1058D000621F739FB00DA11D621F839FA00D611DEC
:1058E000221F749F3327A00D611D231F849F600D0D
:1058F000211D822F762F6A2F11249F57504092F03E
:10590000E9F088234AF0EE0FFF1FBB1F661F771FC9
:10591000881F91505040A9F79E3F510578F083CFE2
:105920000C948D1C5F3FE4F3983ED4F386957795F5
:105930006795B795F795E7959F5FC1F7FE2B880FA1
:10594000911D9695879597F90895990F0008550F21
:10595000AA0BE0E8FEEF16161706E807F907C0F0F5
:1059600012161306E407F50798F0621B730B840BFD
:10597000950B39F40A2661F0232B242B252B21F4D7
:1059800008950A2609F4A140A6958FEF811D811D77
:105990000895A1E21A2EAA1BBB1BFD010DC0AA1F70
:1059A000BB1FEE1FFF1FA217B307E407F50720F088
:1059B000A21BB30BE40BF50B661F771F881F991F03
:1059C0001A9469F760957095809590959B01AC014C
:1059D000BD01CF010895EE0FFF1F881F8BBF0790F9
:1059E000F691E02D19940F931F93CF93DF9382309C
:1059F000910510F482E090E0E0910C14F0910D1408
:105A000020E030E0A0E0B0E0309719F14081518112
:105A10000281138148175907C8F08417950769F464
:105A2000109731F012960C93129713961C9327C07F
:105A300000930C1410930D1422C02115310519F098
:105A40004217530718F49A01BD01EF01DF01F80175
:105A5000DBCF21153105F9F0281B390B2430310536
:105A600080F48A819B816115710521F0FB0193838C
:105A7000828304C090930D1480930C14FE0132961F
:105A800044C0FE01E20FF31F81939193225031092C
:105A9000398328833AC020910A1430910B14232BA8
:105AA00041F4209102023091030230930B142093B1
:105AB0000A1420910002309101022115310541F4B0
:105AC0002DB73EB74091040250910502241B350BBF
:105AD000E0910A14F0910B14E217F307A0F42E1BC7
